S00C00004C6162352E73726563D4
S113000020C03AC039C038C037C036C035C034C04B
S113001033C032C031C030C02FC02EC02DC02CC060
S11300202BC02AC029C028C027C026C025C024C090
S113003023C022C0466C61736820476F72646F6E80
S11300400A0011241FBECFEFD4E0DEBFCDBF11E004
S1130050A0E0B1E0E4E3F9E002C005900D92A63619
S1130060B107D9F721E0A6E6B1E001C01D92AA3696
S1130070B207E1F7C1D05CC4C3CF439888230CF422
S1130080439A429886FD429A419885FD419A409848
S113009084FD409A2B9A82E08A95F1F700C02B9850
S11300A082E08A95F1F700C00895CF93C82F2D9A66
S11300B02B98E3DF8C2F8295807FDFDFCF9108952B
S11300C0CF93DF93EC018881882349F02196EDDFFB
S11300D08AE68A95F1F700C089918111F8CFDF9102
S11300E0CF910895CF93C82F2D982B98C6DF8C2FCE
S11300F08295807FC2DFCF9108952FEF80E792E051
S1130100215080409040E1F700C000002D982B98CA
S113011083E0B3DF8FE19EE40197F1F700C00000B4
S113012083E0ABDF8FE891E00197F1F700C00000B6
S113013083E0A3DF8FE891E00197F1F700C00000AE
S113014082E89BDF9DE09A95F1F7000082E8CADF20
S11301502AE62A95F1F700C081E0C4DF8FE097E238
S11301600197F1F700C000008CE0BCDF9AE69A9595
S1130170F1F700C086E0B6DF2AE62A95F1F700C061
S11301800895E4ECF0E011821082549A80EC80939C
S1130190C20088E18093C10080E895E29183808366
S11301A00895E0ECF0E0908195FFFDCF8093C600C8
S11301B00895CF93DF93EC018881882329F0219659
S11301C0F0DF89918111FCCFDF91CF9108950F93D6
S11301D01F93CF93DF938DE291E0EBDFC4E0D0E097
S11301E006EC10E0F8018081DCDF2197D9F7DF917C
S11301F0CF911F910F910895CF93DF93CDB7DEB7C1
S11302006F970FB6F894DEBF0FBECDBF3B9A3A9AF4
S1130210399A389A239A259A8AB184708AB95A9A53
S113022085E480937C0086E880937A0066DF80E032
S113023091E046DF80EC56DF8AE68A95F1F700C04C
S11302408091680190916901009721F482E291E024
S113025037DF09C0019721F485E191E031DF03C064
S11302608DE091E02DDF78948CDF87E591E0A1DFCC
S113027084E390E09EDFAE01425E5F4FBE01645EA8
S11302807F4FCE014A96A3DF8F8D8F938E8D8F93F0
S11302908D8D8F938C8D8F938B8D8F938A8D8F9370
S11302A087E491E09F938F938E010F5F1F4F1F93FD
S11302B00F9378D0C8017DDF0FB6F894DEBF0FBE70
S11302C0CDBF03E010E087E591E073DF84E390E0C5
S11302D070DF4A9913C08FE19EE40197F1F700C0E3
S11302E000004A990BC080916801909169010196C0
S11302F0B80145D09093670180936601209166010F
S1130300309167018091680190916901281739073C
S1130310C9F080ECE7DE9AE69A95F1F700C0809187
S1130320660190916701009721F482E291E0C8DEB2
S113033009C0019721F485E191E0C2DE03C08DE09C
S113034091E0BEDE8091660190916701909369010E
S113035080936801B8CFAA1BBB1B51E107C0AA1F39
S1130360BB1FA617B70710F0A61BB70B881F991F52
S11303705A95A9F780959095BC01CD01089597FBF6
S1130380072E16F4009406D077FD08D0E4DF07FCAE
S113039005D03EF4909581959F4F08957095619591
S11303A07F4F0895AEE0B0E0E7EDF1E098C20D892B
S11303B01E8986E08C831A8309838FEF9FE79E83CF
S11303C08D83AE01475E5F4F6F89788DCE010196B4
S11303D009D02F813885F801E20FF31F10822E9681
S11303E0E4E099C2ACE0B0E0E7EFF1E06AC27C017E
S11303F06B018A01FC0117821682838181FFB0C1DF
S1130400CE0101964C01F7019381F60193FD85918C
S113041093FF81916F01882309F49EC1853239F4D9
S113042093FD859193FF81916F01853221F4B7018A
S113043090E0B1D1E8CF512C312C20E02032A0F44F
S11304408B3269F030F4803259F0833269F42061E0
S11304502CC08D3239F0803339F4216026C02260FB
S1130460246023C0286021C027FD27C030ED380F49
S11304703A3078F426FF06C0FAE05F9E300D11246E
S1130480532E13C08AE0389E300D1124332E20627F
S11304900CC08E3221F426FD5FC1206406C08C3668
S11304A011F4206802C0883641F4F60193FD859169
S11304B093FF81916F018111C1CF982F9F7D955436
S11304C0933028F40C5F1F4FFFE3F9830DC083368C
S11304D031F0833771F0833509F057C021C0F8013A
S11304E0808189830E5F1F4F44244394512C54010F
S11304F014C03801F2E06F0E711CF801A080B180C5
S113050026FF03C0652D70E002C06FEF7FEFC501C9
S11305102C8736D12C0183012C852F77222E16C0EF
S11305203801F2E06F0E711CF801A080B18026FF43
S113053003C0652D70E002C06FEF7FEFC5012C870B
S113054014D12C012C852068222E830123FC19C090
S1130550832D90E048165906A0F4B70180E290E09C
S11305601AD13A94F5CFF50127FC859127FE8191A4
S11305705F01B70190E00FD131103A94F1E04F1AC6
S113058051084114510479F7DEC0843611F08936DC
S113059031F5F80127FF07C0608171818281938161
S11305A00C5F1F4F08C060817181072E000C880BFF
S11305B0990B0E5F1F4F2F76722E97FF09C09095EF
S11305C08095709561957F4F8F4F9F4F2068722E55
S11305D02AE030E0A40117D1A82EA81843C085371B
S11305E029F42F7EB22E2AE030E025C0F22FF97FC5
S11305F0BF2E8F36C1F018F4883579F0ADC080373E
S113060019F0883721F0A8C02F2F2061B22EB4FE34
S11306100DC08B2D8460B82E09C024FF0AC09F2F03
S11306209660B92E06C028E030E005C020E130E035
S113063002C020E132E0F801B7FE07C06081718199
S1130640828193810C5F1F4F06C06081718180E0BD
S113065090E00E5F1F4FA401D6D0A82EA818FB2D42
S1130660FF777F2E76FE0BC0372D3E7FA51450F406
S113067074FE0AC072FC08C0372D3E7E05C0BA2C39
S1130680372D03C0BA2C01C0B52C34FF0DC0FE01B8
S1130690EA0DF11D8081803311F4397E09C032FFE7
S11306A006C0B394B39404C0832F867809F0B3943E
S11306B033FD12C030FF06C05A2CB31418F4530C87
S11306C05B18B32CB31460F4B70180E290E03C876C
S11306D062D0B3943C85F6CFB31410F43B1801C038
S11306E0312C34FF11C0B70180E390E03C8753D034
S11306F03C8532FF16C031FD03C088E790E002C09C
S113070088E590E0B7010CC0832F867851F031FF63
S113071002C08BE201C080E237FD8DE2B70190E0B8
S11307203AD0A51430F4B70180E390E034D05A9461
S1130730F8CFAA94F401EA0DF11D8081B70190E08D
S11307402AD0A110F6CF332009F45DCEB70180E2A0
S113075090E021D03A94F7CFF7018681978102C0C7
S11307608FEF9FEF2C96E2E1C8C0FC010590615029
S113077070400110D8F7809590958E0F9F1F0895B3
S1130780FC016150704001900110D8F7809590955C
S11307908E0F9F1F08950F931F93CF93DF93FB0139
S11307A0238121FD03C08FEF9FEF28C022FF16C0D5
S11307B046815781248135814217530744F4A0812F
S11307C0B1819D012F5F3F4F318320838C9326811C
S11307D037812F5F3F4F3783268310C0EB01092FEA
S11307E0182F0084F185E02D0995892BE1F68E817F
S11307F09F8101969F838E83812F902FDF91CF91CC
S11308001F910F910895FA01AA27283051F1203140
S113081081F1E8946F936E7F6E5F7F4F8F4F9F4F90
S1130820AF4FB1E03ED0B4E03CD0670F781F891FD2
S11308309A1FA11D680F791F8A1F911DA11D6A0FA0
S1130840711D811D911DA11D20D009F468943F9153
S11308502AE0269F11243019305D3193DEF6CF0152
S11308600895462F4770405D4193B3E00FD0C9F718
S1130870F6CF462F4F70405D4A3318F0495D31FD85
S11308804052419302D0A9F7EACFB4E0A6959795D8
S1130890879577956795BA95C9F7009761057105AE
S11308A008959B01AC010A2E0694579547953795F8
S11308B02795BA95C9F7620F731F841F951FA01D52
S11308C008952F923F924F925F926F927F928F92F0
S11308D09F92AF92BF92CF92DF92EF92FF920F93CB
S11308E01F93CF93DF93CDB7DEB7CA1BDB0B0FB6D5
S11308F0F894DEBF0FBECDBF09942A883988488892
S11309005F846E847D848C849B84AA84B984C88427
S1130910DF80EE80FD800C811B81AA81B981CE0F1E
S1130920D11D0FB6F894DEBF0FBECDBFED01089503
S1070930F894FFCF65
S113093443757272656E742074696D650054656DD7
S113094470203D20004672657175656E6379203DA3
S11309542000566F6C74616765203D2000506C65FF
S113096461736520456E746572205965617220282F
S113097479797979293A00446174653A2025642F98
S113098425642F25640A0048656C6C6F20576F72C8
S10909946C64210A00005E
S9030000FC
