S00C00004C6162352E73726563D4
S113000020C03AC039C038C037C036C035C034C04B
S113001033C032C031C030C02FC02EC02DC02CC060
S11300202BC02AC029C028C027C026C025C024C090
S113003023C022C0466C61736820476F72646F6E80
S11300400A0011241FBECFEFD4E0DEBFCDBF11E004
S1130050A0E0B1E0E2E4FEE002C005900D92A0371A
S1130060B107D9F721E0A0E7B1E001C01D92AD3797
S1130070B207E1F71ED2E3C6C3CF439888230CF43A
S1130080439A429886FD429A419885FD419A409848
S113009084FD409A2B9A82E08A95F1F700C02B9850
S11300A082E08A95F1F700C00895CF93C82F2D9A66
S11300B02B98E3DF8C2F8295807FDFDFCF9108952B
S11300C0CF93DF93EC018881882349F02196EDDFFB
S11300D08AE68A95F1F700C089918111F8CFDF9102
S11300E0CF910895CF93C82F2D982B98C6DF8C2FCE
S11300F08295807FC2DFCF9108952FEF80E792E051
S1130100215080409040E1F700C000002D982B98CA
S113011083E0B3DF8FE19EE40197F1F700C00000B4
S113012083E0ABDF8FE891E00197F1F700C00000B6
S113013083E0A3DF8FE891E00197F1F700C00000AE
S113014082E89BDF9DE09A95F1F7000082E8CADF20
S11301502AE62A95F1F700C081E0C4DF8FE097E238
S11301600197F1F700C000008CE0BCDF9AE69A9595
S1130170F1F700C086E0B6DF2AE62A95F1F700C061
S113018008951092790010927800EAE7F0E08081F7
S113019080648083808184FFFDCFEAE7F0E0808182
S11301A08061808380917800909179000895F8941B
S11301B010928500E4E8F0E0108286E080938100EC
S11301C08081811104C0000080818823E1F32FEF36
S11301D080E792E0215080409040E1F700C00000A9
S11301E015BCA89B05C081E086BB8FEF9FEF0895E7
S11301F0209184008091850090E0982F8827820FB9
S1130200911D0895E4ECF0E011821082549A80EC80
S11302108093C20088E18093C10080E895E29183D5
S113022080830895E0ECF0E0908195FFFDCF80930A
S1130230C6000895CF93DF93EC018881882329F0C9
S11302402196F0DF89918111FCCFDF91CF91089540
S11302500F931F93CF93DF938DE291E0EBDFC4E024
S1130260D0E006EC10E0F8018081DCDF2197D9F7BB
S1130270DF91CF911F910F9108951092B90088E3F7
S11302808093B800089594EA9093BC00ECEBF0E0FE
S113029090819923ECF79091B900987F983011F0F0
S11302A0903191F48093BB0084E88093BC00ECEB24
S11302B0F0E080818823ECF78091B900887F883151
S11302C011F0803419F4089581E0089580E00895D0
S11302D084E98093BC00ECEBF0E0808184FDFDCFE9
S11302E008958093BB0084E88093BC00ECEBF0E0BD
S11302F080818823ECF79091B900987F81E098324F
S113030009F480E0089584EC8093BC00ECEBF0E009
S113031080818823ECF78091BB00089584E8809362
S1130320BC00ECEBF0E080818823ECF78091BB000B
S11303300895CF93C82F81E0D5DEC13019F487E446
S113034091E0BEDECF91089580E99DDF882329F0F6
S1130350BFDF81E090E0EDDF08958CEAC2DF80E04A
S1130360C0DFB6DF089580E98EDF882329F0B0DF8F
S113037081E090E0DEDF08958EEEB3DFA9DF08951B
S113038080E981DF882329F0A3DF81E090E0D1DFD9
S1130390089582E2A6DF9CDF0895CF93DF9380E97E
S11303A072DF882329F094DF81E090E0C2DF02C08D
S11303B08AEA97DF81E967DF882329F089DF81E012
S11303C090E0B7DF07C09FDFCAE7D1E08883A6DFEC
S11303D089837EDFDF91CF91089580E954DF8823FC
S11303E029F076DF81E090E0A4DF02C08AE979DFBA
S11303F081E949DF882329F06BDF81E090E099DF10
S113040008958CDF80937D01089580E93CDF882383
S113041029F05EDF81E090E08CDF02C088EA61DFD2
S113042081E931DF882329F053DF81E090E081DF27
S1130430089574DF80937C010895CF92DF92EF9248
S1130440FF920F931F93CF93DF939ADFA6DFDDDF35
S1130450C4DF0AE711E0F801C381D0E0608170E0F5
S113046080E090E073D120E030E040E85EE3DBD050
S11304706B017C01F80182819E01281B3109C901AD
S1130480BE01F0D1072E000C880B990B5FD19B01A4
S1130490AC01C701B601C8D02BD16093770163DFEB
S11304A0DF91CF911F910F91FF90EF90DF90CF904C
S11304B00895CF93DF93CDB7DEB76F970FB6F89457
S11304C0DEBF0FBECDBF3B9A3A9A399A389A239A27
S11304D0259A8AB184708AB95A9A85E480937C00FB
S11304E086E880937A0009DEC8DE2EDF80E091E0A2
S11304F0E7DD80ECF7DD2AE62A95F1F700C0789471
S113050081DE82E691E096DE84E390E093DEAE0144
S1130510425E5F4FBE01645E7F4FCE014A9698DE15
S11305208F8D8F938E8D8F938D8D8F938C8D8F93D5
S11305308B8D8F938A8D8F9382E591E09F938F9318
S11305408E010F5F1F4F1F930F93B3D1C80172DE4B
S11305500FB6F894DEBF0FBECDBF03E010E082E615
S113056091E068DE84E390E065DE4A9916C09FEF6F
S113057020E782E0915020408040E1F700C0000075
S11305804A990BC080917201909173010196B80150
S113059069D1909371018093700120917001309121
S11305A0710180917201909173012817390791F1BB
S11305B081E098DD80E896DD9AE69A95F1F700C02F
S11305C080E091E07DDD80EC8DDD2AE62A95F1F76F
S11305D000C08091700190917101009749F4D1DDC0
S11305E0909379018093780182E291E069DD12C0F1
S11305F0019761F4DCDD880F982F990F990F890F0B
S11306008093740185E191E05BDD04C016DF8DE029
S113061091E056DD80917001909171019093730186
S1130620809372019CCF5058BB27AA270ED0E0C0FC
S1130630D1D030F0D6D020F031F49F3F11F41EF425
S1130640C6C00EF4E095E7FBBCC0E92FE2D080F30E
S1130650BA17620773078407950718F071F49EF5BB
S1130660FAC00EF4E0950B2EBA2FA02D0B01B901A0
S113067090010C01CA01A0011124FF27591B99F014
S1130680593F50F4503E68F11A16F040A22F232F20
S1130690342F4427585FF3CF469537952795A79570
S11306A0F0405395C9F77EF41F16BA0B620B730B17
S11306B0840BBAF09150A1F0FF0FBB1F661F771F88
S11306C0881FC2F70EC0BA0F621F731F841F48F43D
S11306D0879577956795B795F7959E3F08F0B3CFC3
S11306E09395880F08F09927EE0F979587950895AD
S11306F098D088F09F5790F0B92F9927B751A0F060
S1130700D1F0660F771F881F991F1AF0BA95C9F7A1
S113071012C0B13081F09FD0B1E008959CC0672F22
S1130720782F8827B85F39F0B93FCCF38695779551
S11307306795B395D9F73EF490958095709561953A
S11307407F4F8F4F9F4F0895E89409C097FB3EF465
S113075090958095709561957F4F8F4F9F4F99230A
S1130760A9F0F92F96E9BB279395F6958795779588
S11307706795B795F111F8CFFAF4BB0F11F460FF48
S11307801BC06F5F7F4F8F4F9F4F16C0882311F0A0
S113079096E911C0772321F09EE8872F762F05C0B4
S11307A0662371F096E8862F70E060E02AF09A954F
S11307B0660F771F881FDAF7880F9695879597F944
S11307C0089597F99F6780E870E060E008959FEFCF
S11307D080EC089500240A941616170618060906D4
S11307E0089500240A9412161306140605060895A3
S11307F0092E0394000C11F4882352F0BB0F40F42B
S1130800BF2B11F460FF04C06F5F7F4F8F4F9F4F6A
S1130810089557FD9058440F551F59F05F3F71F0EC
S11308204795880F97FB991F61F09F3F79F0879553
S11308300895121613061406551FF2CF4695F1DFDC
S113084008C0161617061806991FF1CF869571056C
S1130850610508940895E894BB2766277727CB01A0
S113086097F9089597FB072E16F4009406D077FDA8
S113087008D00BD007FC05D03EF4909581959F4F8E
S11308800895709561957F4F0895AA1BBB1B51E194
S113089007C0AA1FBB1FA617B70710F0A61BB70BEC
S11308A0881F991F5A95A9F780959095BC01CD0191
S11308B00895AEE0B0E0EEE5F4E098C20D891E893B
S11308C086E08C831A8309838FEF9FE79E838D8351
S11308D0AE01475E5F4F6F89788DCE01019609D0D6
S11308E02F813885F801E20FF31F10822E96E4E081
S11308F099C2ACE0B0E0EEE7F4E06AC27C016B01BF
S11309008A01FC0117821682838181FFB0C1CE0166
S113091001964C01F7019381F60193FD859193FFB4
S113092081916F01882309F49EC1853239F493FDC6
S1130930859193FF81916F01853221F4B70190E095
S1130940B1D1E8CF512C312C20E02032A0F48B32ED
S113095069F030F4803259F0833269F420612CC09C
S11309608D3239F0803339F4216026C0226024604E
S113097023C0286021C027FD27C030ED380F3A304E
S113098078F426FF06C0FAE05F9E300D1124532E42
S113099013C08AE0389E300D1124332E20620CC01F
S11309A08E3221F426FD5FC1206406C08C3611F41A
S11309B0206802C0883641F4F60193FD859193FFC7
S11309C081916F018111C1CF982F9F7D95549330F0
S11309D028F40C5F1F4FFFE3F9830DC0833631F019
S11309E0833771F0833509F057C021C0F801808145
S11309F089830E5F1F4F44244394512C540114C027
S1130A003801F2E06F0E711CF801A080B18026FF5E
S1130A1003C0652D70E002C06FEF7FEFC5012C8726
S1130A2036D12C0183012C852F77222E16C0380154
S1130A30F2E06F0E711CF801A080B18026FF03C0A4
S1130A40652D70E002C06FEF7FEFC5012C8714D1D4
S1130A502C012C852068222E830123FC19C0832DB0
S1130A6090E048165906A0F4B70180E290E01AD14C
S1130A703A94F5CFF50127FC859127FE81915F011A
S1130A80B70190E00FD131103A94F1E04F1A5108B8
S1130A904114510479F7DEC0843611F0893631F5FA
S1130AA0F80127FF07C060817181828193810C5F07
S1130AB01F4F08C060817181072E000C880B990BB1
S1130AC00E5F1F4F2F76722E97FF09C09095809569
S1130AD0709561957F4F8F4F9F4F2068722E2AE04B
S1130AE030E0A40117D1A82EA81843C0853729F4F3
S1130AF02F7EB22E2AE030E025C0F22FF97FBF2EE0
S1130B008F36C1F018F4883579F0ADC0803719F00C
S1130B10883721F0A8C02F2F2061B22EB4FE0DC05B
S1130B208B2D8460B82E09C024FF0AC09F2F9660C5
S1130B30B92E06C028E030E005C020E130E002C054
S1130B4020E132E0F801B7FE07C060817181828143
S1130B5093810C5F1F4F06C06081718180E090E03B
S1130B600E5F1F4FA401D6D0A82EA818FB2DFF7727
S1130B707F2E76FE0BC0372D3E7FA51450F474FEF5
S1130B800AC072FC08C0372D3E7E05C0BA2C372D32
S1130B9003C0BA2C01C0B52C34FF0DC0FE01EA0D10
S1130BA0F11D8081803311F4397E09C032FF06C003
S1130BB0B394B39404C0832F867809F0B39433FDBF
S1130BC012C030FF06C05A2CB31418F4530C5B182F
S1130BD0B32CB31460F4B70180E290E03C8762D098
S1130BE0B3943C85F6CFB31410F43B1801C0312CF8
S1130BF034FF11C0B70180E390E03C8753D03C85BB
S1130C0032FF16C031FD03C088E790E002C088E5DA
S1130C1090E0B7010CC0832F867851F031FF02C0F9
S1130C208BE201C080E237FD8DE2B70190E03AD05B
S1130C30A51430F4B70180E390E034D05A94F8CF8F
S1130C40AA94F401EA0DF11D8081B70190E02AD045
S1130C50A110F6CF332009F45DCEB70180E290E015
S1130C6021D03A94F7CFF7018681978102C08FEFA4
S1130C709FEF2C96E2E1C8C0FC01059061507040E2
S1130C800110D8F7809590958E0F9F1F0895FC0151
S1130C906150704001900110D8F7809590958E0FA7
S1130CA09F1F08950F931F93CF93DF93FB0123811D
S1130CB021FD03C08FEF9FEF28C022FF16C046819D
S1130CC05781248135814217530744F4A081B181AF
S1130CD09D012F5F3F4F318320838C932681378181
S1130CE02F5F3F4F3783268310C0EB01092F182F46
S1130CF00084F185E02D0995892BE1F68E819F8191
S1130D0001969F838E83812F902FDF91CF911F9126
S1130D100F910895FA01AA27283051F1203181F169
S1130D20E8946F936E7F6E5F7F4F8F4F9F4FAF4FEF
S1130D30B1E03ED0B4E03CD0670F781F891F9A1F02
S1130D40A11D680F791F8A1F911DA11D6A0F711DB6
S1130D50811D911DA11D20D009F468943F912AE0C2
S1130D60269F11243019305D3193DEF6CF010895AA
S1130D70462F4770405D4193B3E00FD0C9F7F6CFDB
S1130D80462F4F70405D4A3318F0495D31FD4052A3
S1130D90419302D0A9F7EACFB4E0A6959795879539
S1130DA077956795BA95C9F7009761057105089518
S1130DB09B01AC010A2E06945795479537952795C4
S1130DC0BA95C9F7620F731F841F951FA01D08955C
S1130DD02F923F924F925F926F927F928F929F9247
S1130DE0AF92BF92CF92DF92EF92FF920F931F9335
S1130DF0CF93DF93CDB7DEB7CA1BDB0B0FB6F894E6
S1130E00DEBF0FBECDBF09942A88398848885F8425
S1130E106E847D848C849B84AA84B984C884DF8096
S1130E20EE80FD800C811B81AA81B981CE0FD11D7A
S1130E300FB6F894DEBF0FBECDBFED010895F89450
S1050E40FFCFDE
S1130E4243757272656E742074696D650054656DC4
S1130E5270203D20004672657175656E6379203D90
S1130E622000566F6C74616765203D2000506C65EC
S1130E7261736520456E746572205965617220281C
S1130E8279797979293A004572726F722074656DA5
S1130E927000446174653A2025642F25642F25640B
S1130EA20A0048656C6C6F20576F726C64210A00EB
S9030000FC
